:020000040000FA
:10000000000C5A0EA50DA50F000043076D0B050C43
:100010005A0EA00DA00F000043076D0B0A0C5A0EDC
:10002000A50DAF0F000043076D0B0F0C5A0EA00D6E
:10003000AA0F000043076D0B140C5A0EA10DB10F4F
:10004000000043076D0B190C5A0EA40DBC0F0000E5
:1000500043076D0B1E0C5A0EA10DBB0F000043078A
:100060006D0B230C5A0E840D860F000043076D0B99
:10007000280C5A0E850D8D0F000043076D0B2D0CBB
:100080005A0E800D880F000043076D0B320C5A0E7C
:10009000850D970F000043076D0B370C5A0E800D2E
:1000A000920F000043076D0B3C0C5A0E810D990F07
:1000B000000043076D0B410C5A0EA40DE40F000025
:1000C00043076D0B460C5A0EA10DE30F00004307CA
:1000D0006D0B4B0C5A0EA40DEE0F000043076D0B79
:1000E000500C5A0EA50DF50F000043076D0B550C73
:1000F0005A0EA00DF00F000043076D0B5A0C5A0E5C
:10010000A50DFF0F000043076D0B5F0C5A0EA00DED
:10011000FA0F000043076D0B640C5A0E810DC10FDE
:10012000000043076D0B690C5A0E840DCC0F0000C4
:1001300043076D0B6E0C5A0E810DCB0F0000430769
:100140006D0B730C5A0E840DD60F000043076D0B18
:10015000780C5A0E850DDD0F000043076D0B7D0CEA
:100160005A0E800DD80F000043076D0B820C5A0EFB
:10017000250D270F000043076D0B870C5A0E200D2D
:10018000220F000043076D0B8C0C5A0E210D290F16
:10019000000043076D0B910C5A0E240D340F000024
:1001A00043076D0B960C5A0E210D330F00004307C9
:1001B0006D0B9B0C5A0E240D3E0F000043076D0B78
:1001C000A00C5A0E050D050F000043076D0BA50C82
:1001D0005A0E000D000F000043076D0BAA0C5A0EBB
:1001E000050D0F0F000043076D0BAF0C5A0E000DED
:1001F0000A0F000043076D0BB40C5A0E010D110FCE
:10020000000043076D0BB90C5A0E040D1C0F0000C3
:1002100043076D0BBE0C5A0E010D1B0F0000430768
:100220006D0BC30C5A0E240D660F000043076D0BB7
:10023000C80C5A0E250D6D0F000043076D0BCD0C39
:100240005A0E200D680F000043076D0BD20C5A0E9A
:10025000250D770F000043076D0BD70C5A0E200DAC
:10026000720F000043076D0BDC0C5A0E210D790F45
:10027000000043076D0BE10C5A0E040D440F000003
:1002800043076D0BE60C5A0E010D430F00004307A8
:100290006D0BEB0C5A0E040D4E0F000043076D0B57
:1002A000F00C5A0E050D550F000043076D0BF50CB1
:1002B0005A0E000D500F000043076D0BFA0C5A0E3A
:1002C000050D5F0F000043076D0BFF0C5A0E000D6C
:0C02D0005A0F000043076D0B6C0B6D0B08
:00000001FF
